:020000040800F2
:10000000E80B0020CD010008072800088D2000081B
:1000100005280008170300086933000800000000E5
:10002000000000000000000000000000532A00084B
:10003000A303000800000000512A0008992A0008C4
:10004000E7010008E7010008E7010008E7010008F0
:10005000E7010008E7010008E7010008E7010008E0
:10006000E7010008E7010008E7010008E7010008D0
:100070001903000825030008310300083D030008A8
:100080004903000855030008E7010008E7010008DC
:10009000E7010008E7010008E7010008E7010008A0
:1000A000E7010008E7010008E7010008E701000890
:1000B000FD2A0008092B0008152B0008E70100089D
:1000C000E7010008E7010008E7010008E701000870
:1000D000E7010008D53100085D320008053300084B
:1000E000E7010008E7010008E7010008E701000850
:1000F000E7010008E7010008E7010008E701000840
:10010000E7010008E7010008E7010008E70100082F
:10011000C92D00082D2E0008E7010008E70100089E
:10012000E7010008E7010008610300086D0300080B
:1001300000F002F800F03AF80AA090E8000C8244BF
:100140008344AAF10107DA4501D100F02FF8AFF29C
:10015000090EBAE80F0013F0010F18BFFB1A43F0A5
:1001600001031847843D0000A43D0000103A24BF5D
:1001700078C878C1FAD8520724BF30C830C144BF0C
:1001800004680C607047000000230024002500264E
:10019000103A28BF78C1FBD8520728BF30C148BFEA
:1001A0000B6070471FB51FBD10B510BD00F07AF889
:1001B0001146FFF7F7FF03F0E9F800F098F803B4F1
:1001C000FFF7F2FF03BC00F09FF8000009488047EA
:1001D00009480047FEE7FEE7FEE7FEE7FEE7FEE729
:1001E000FEE7FEE7FEE7FEE704480549054A064B41
:1001F00070470000FB2A000831010008E8050020D4
:10020000E80B0020E8070020E80700204FF000027C
:100210000429C0F0128010F0030C00F01B80CCF118
:10022000040CBCF1020F18BF00F8012BA8BF20F886
:10023000022BA1EB0C0100F00DB85FEAC17C24BFDA
:1002400000F8012B00F8012B48BF00F8012B704784
:100250004FF0000200B5134694469646203922BF5F
:10026000A0E80C50A0E80C50B1F12001BFF4F7AFAA
:10027000090728BFA0E80C5048BF0CC05DF804EB8C
:10028000890028BF40F8042B08BF704748BF20F8FA
:10029000022B11F0804F18BF00F8012B70477047F8
:1002A00070477047754600F02BF8AE46050069466A
:1002B000534620F00700854618B020B5FFF794FF9D
:1002C000BDE820404FF000064FF000074FF0000857
:1002D0004FF0000B21F00701AC46ACE8C009ACE8D8
:1002E000C009ACE8C009ACE8C0098D46704710B53C
:1002F0000446AFF300802046BDE81040FFF75FBF23
:10030000004870478405002001491820ABBEFEE775
:10031000260002007047FEE7014800F001B9000026
:1003200040050020014800F0FBB80000FC0400205C
:10033000014800F0F5B8000030040020014800F04A
:10034000EFB80000EC030020014800F0E9B800001D
:1003500074040020014800F0E3B80000B804002055
:10036000014800F0DDB8000064030020014800F0FF
:10037000D7B80000A803002030B590F84050012401
:10038000AC40C56B6C60046863604368102B036805
:1003900003D099600068C26030BD9A600068C16097
:1003A00030BD704772B6FEE710B590F821100022FC
:1003B000022905D00421816380F82020012010BD8E
:1003C00001680B6823F00E030B6001680B6823F0D3
:1003D00001030B6090F84030C46B012101FA03F374
:1003E000636080F8211080F82020104610BD0000C6
:1003F0002DE9F05F90F821100024022903D0042198
:100400008163012485E001680A6822F00E020A6017
:1004100001680A6822F001020A603F4E3E4FB215A1
:10042000DFF8F4C0DFF8F090DFF8ECA0DFF8E8B018
:10043000DFF8E4E00168783F13011502ACF1640CC9
:10044000A9F15009AAF13C0AABF1280BAEF1140E48
:100450004FF48018B14227D9B9420ED0614512D06D
:1004600049451DD0514518D0594518D0714501D185
:10047000424615E0294EB14201D1012210E0274E3B
:100480001436B14201D110220AE0244E2836B1427E
:1004900006D0224A3C32914201D11A4600E02A4657
:1004A0001E49091F0A602BE0B94213D0614517D0DD
:1004B000494522D051451DD059451DD0714501D126
:1004C00042461AE0B14202D14FF0807215E0134E5D
:1004D000B14201D1012210E0104E1436B14201D1D7
:1004E00010220AE00D4E2836B14206D00B4A3C32AB
:1004F000914201D11A4600E02A46074980394A60F4
:10050000012180F82110002180F82010416B01B1F9
:1005100088472046BDE8F09F800002400804024062
:100520002DE9F05FC16B0A6801680B68046C4FF03D
:10053000040808FA04F8844D844E854FDFF814C28D
:10054000DFF81492DFF814A2DFF814B2DFF814E237
:1005500018EA020F65D05FEA437862D50A6892060E
:1005600003D40A6822F004020A60DFF8F0814FF435
:100570008062016808F1140813011402414524D96E
:10058000A9420DD0B1420FD0B9421AD0614515D061
:10059000494515D0514501D1120312E0594501D109
:1005A00004220EE0714501D140220AE06D4D143560
:1005B000A94206D06B4A2832914201D11A4600E086
:1005C00022466749091F0A6029E0A94213D0B142B7
:1005D00015D0B94220D061451BD049451BD05145AB
:1005E00002D14FF4800217E0414502D14FF0806202
:1005F00012E0594501D104220EE0714501D140229B
:100600000AE0584D1435A94206D0564A2832914284
:1006100001D11A4600E022464B4908394A60C16AB6
:1006200071E04FF0020808FA04F818EA020F70D0DF
:100630005FEA83786DD50A68920606D40A6822F0CC
:100640000A020A60012180F82110DFF810814FF4BE
:100650000072016808F1140813011402414524D9FD
:10066000A9420DD0B1420FD0B9421AD0614515D080
:10067000494515D0514501D1120312E0594501D128
:1006800002220EE0714501D120220AE0354D1435D9
:10069000A94206D0334A2832914201D11A4600E0DD
:1006A00022462F49091F0A6029E0A94213D0B1420E
:1006B00015D0B94220D061451BD049451BD05145CA
:1006C00002D14FF4001217E0414502D14FF0007201
:1006D00012E0594501D102220EE0714501D12022DC
:1006E0000AE0204D1435A94206D01E4A2832914214
:1006F00001D11A4600E02246134908394A60002118
:1007000080F82010816A00291CD0BDE8F05F0847FE
:10071000FFE70825A540154214D01A0712D50A682C
:1007200022F00E020A6090F84020C36B012101FA0A
:1007300002F25A60816380F82110002180F82010B5
:10074000016BE0E7BDE8F09F080002401C0002409A
:100750003000024044000240580002406C00024059
:10076000080402401C04024030B560B11A4B026814
:1007700014219A4209D2194B1344B3FBF1F18900B9
:10078000016417490AE0012030BD134B5B4213445A
:10079000B3FBF1F1890001640F490839C1630221FB
:1007A00080F82110136843F6F0718B43F0E90114CF
:1007B0002143D0E902452C43214304692143446984
:1007C00021438469214319431160002141630122BF
:1007D00042770177084630BD08040240F8FFFDBFAC
:1007E0000000024070B5044690F820000025012862
:1007F0000CD0012084F8200094F821600020012E04
:1008000006D084F820000225284670BD022070BD65
:10081000022684F82160A0632068066826F001069D
:1008200006602046FFF7A8FDE06A002820680168FE
:1008300002D041F00E0106E021F0040101602068C1
:10084000016841F00A0101602068016841F001017E
:100850000160D9E770B5044600F01CF90546601C3C
:1008600002D004480078044400F014F9401BA04270
:10087000FAD370BDE00000202DE9F84FDFF8C891F1
:10088000002409F1040A0AF1040B23460F270BF197
:10089000040ED1E00125A54006EA0502AA4276D160
:1008A000DFF8A8C14E68A6EB0C0866452BD00DDC1E
:1008B000032E34D005DC36B3012E19D0022E2FD1F1
:1008C0001BE0112E16D0122E2AD119E0B8F5881F80
:1008D00019D006DCB8F5803F15D0B8F5801F1FD1C0
:1008E00011E0B8F5001F0ED0B8F5041F18D10AE0CA
:1008F000CB6815E0CB681B1D12E0CB6808330FE016
:10090000CB680C330CE08B682BB1012B4FF0080344
:1009100003D0456104E0042302E0056100E0002308
:10092000FF2A01D8064601E000F104064FEA8405DB
:1009300001D9A5F12005D6F8008007FA05FC28EAC0
:100940000C0803FA05F548EA0508C6F800804D686A
:10095000ED0070D53E4DAE6946F00106AE61AD6961
:1009600024F0030605F0010500953A4D06EB050C51
:10097000DCF80850A607360F07FA06F825EA08053E
:10098000DFF8D480404503D14FF0000825E052E065
:10099000DFF8C880404502D14FF001081DE0DFF8C4
:1009A000C080404502D14FF0020816E0DFF8B48065
:1009B000404502D14FF003080FE0DFF8AC8040451E
:1009C00002D14FF0040808E0DFF8A080404502D1D2
:1009D0004FF0050801E04FF0060808FA06F848EA6B
:1009E0000508CCF808804D68D9F80060ED034D4645
:1009F00001D5164300E096432E604D68DAF800609A
:100A0000AD03554601D5164300E096432E604D6870
:100A1000DBF80060ED025D4601D5164300E0964329
:100A20002E604D68DEF80060AD02754601D51643B4
:100A300000E096432E60641C0A681646E2407FF48C
:100A400029AFBDE8F88F000000040140000011103C
:100A5000001002400000014000080140000C01406D
:100A6000001001400014014000180140001C01402A
:100A70008068084000D001207047C26821EA020364
:100A80000A4043EA0241016170470AB101617047BF
:100A90000904FBE70148806870470000E00000207F
:100AA000024881680278114481607047E0000020AC
:100AB000074810B5016841F010010160032000F003
:100AC00075F8002000F006F800F024F8002010BDB2
:100AD0000020024070B50D4D04464FF47A7128781D
:100AE000B1FBF0F00A490968B1FBF0F000F0ECFA54
:100AF00048B9102C07D200222146501E00F036F8CB
:100B000000206C6070BD012070BD0000E00000207E
:100B1000EC0000200C4808B5816941F001018161B9
:100B2000816901F001010091C16941F08051C16109
:100B3000C06900F0805000900448416821F0E061F5
:100B400041F00071416008BD00100240000001400A
:100B5000002809DB00F01F020121914040098000BC
:100B600000F1E020C0F8001170470000F0B40E4B17
:100B70001B680C46C3F30223C3F10705042D00D9FB
:100B80000425191D072901D2002300E0DB1E0126E0
:100B900006FA05F1491E214099409E40761E1640F6
:100BA0003143F0BC02F0E1BB0CED00E0064900F07F
:100BB000070208684FF6FF03184040EA0220034A84
:100BC00010430860704700000CED00E00000FA05DB
:100BD0002DE9F0470F46050061D0434E306800F024
:100BE0000700B84209D2306820F00700384330606F
:100BF000306800F00700B84251D128683B4C8107AB
:100C000012D5400703D5606840F4E0606060287842
:100C1000000703D5606840F4605060606068A968B0
:100C200020F0F000084360602878C00728D068688A
:100C3000012810D02168022810D0890700292EDA57
:100C4000616821F0030101436160FFF723FF8046E3
:100C500041F288390DE021688903EFE78901EDE76A
:100C6000FFF718FFA0EB0801494502D90320BDE8B2
:100C7000F0876068696800F00C00B0EB810FEFD17D
:100C8000306800F00700B8420BD9306820F0070048
:100C900038433060306800F00700B84201D00120CE
:100CA000E5E72878400705D56068E96820F4E0604A
:100CB000084360602878000706D56068296920F439
:100CC000605040EAC100606000F038F86168084A8E
:100CD000C1F30311515CC84006490860064800682A
:100CE000FFF7F8FE0020C2E700200240001002409B
:100CF000CE3E0008EC000020E40000200448054936
:100D000000684968044AC1F30221515CC840704739
:100D1000EC00002000100240DE3E000804480549B7
:100D200000684968044AC1F3C221515CC840704759
:100D3000EC00002000100240DE3E000812A185B049
:100D40000FC98DE80F0014A0144A00680490516880
:100D5000134801F00C03042B10D0082B0ED1C1F363
:100D60008343C9031DF803000AD5516804AAC1F3DF
:100D70004041515C0A4A5043B0FBF1F005B0704766
:100D800008494843FAE7000002030405060708097A
:100D90000A0B0C0D0E0F1010010200000010024093
:100DA00000127A0000093D002DE9F84F040070D0D0
:100DB0002078C04DC00749D06868C0F38100012881
:100DC00007D06868C0F38100022809D16868C003B1
:100DD00006D52868800339D560680028E7D035E05B
:100DE0006068B0F5803F0BD010B1B0F5A02F11D0E6
:100DF000286820F480302860286820F4802002E0F1
:100E0000286840F480302860606890B1FFF742FEA7
:100E100006460AE0286840F480202860F0E700BF1A
:100E2000FFF738FE801B642873D828688003F7D545
:100E30000CE0FFF72FFE064605E000BFFFF72AFE95
:100E4000801B6428F0D828688003F7D420789A4E55
:100E500080074FF001094FF0000839D5686810F09D
:100E60000C0F07D06868C0F38100022809D16868B8
:100E7000C00306D42868800714D52069012808D14A
:100E800010E02069B0B1C6F80090FFF703FE0746F6
:100E900005E00AE1FFF7FEFDC01B0228C4D8286860
:100EA0008007F7D52868616920F0F80040EAC100A2
:100EB00028600DE0C6F80080FFF7ECFD074604E06F
:100EC000FFF7E8FDC01B022823D828688007F7D465
:100ED000207800072CD57948A169D9B1C0F80090D5
:100EE000FFF7D8FD074604E0FFF7D4FDC01B02283A
:100EF0000FD8686A8007F7D571484FF4FA51006837
:100F0000B0FBF1F0009000BF0098411E0091FAD2B2
:100F10000EE080E0C0F80080FFF7BCFD074604E06B
:100F2000FFF7B8FDC01B022875D8686A8007F7D4A0
:100F30002078400760D5E8690027C00008D4E86938
:100F400040F08050E861E869012700F0805000908F
:100F50005C480168C90513D40168834641F4807177
:100F60000160FFF797FD824606E000BFFFF792FDA4
:100F7000A0EB0A0064284ED8DBF80000C005F5D5C8
:100F8000E06801280AD008B1052813D0286A20F0AB
:100F900001002862286A20F0040002E0286A40F07C
:100FA00001002862E06841F2883B98B1FFF772FDCA
:100FB00082460BE0286A40F004002862EEE700BF9A
:100FC000FFF768FDA0EB0A0159455AD8286A800747
:100FD000F6D50CE0FFF75EFD824605E0FFF75AFD0F
:100FE000A0EB0A0159454CD8286A8007F6D41FB1F6
:100FF000E86920F08050E861E06988B36968C1F36E
:101000008101022944D00228C6F8608004D0FFF78D
:1010100041FD044638E034E0FFF73CFD074604E0BC
:10102000FFF738FDC01B02282BD828688001F7D4B1
:10103000206AB0F5803F05D16868A16820F40030CF
:1010400008436860D4E908010843696821F4741111
:1010500008436860C6F86090FFF71CFD044606E090
:1010600025E000BFFFF716FD001B022809D82868FD
:101070008001F7D51BE000BFFFF70CFD001B022825
:1010800002D90320BDE8F88F28688001F4D40EE06F
:101090000128F7D06868226A00F48031914204D1B7
:1010A000616A00F47010884201D00120EAE7002054
:1010B000E8E7000000100240000042428004424283
:1010C000EC0000200070004010B5401EB0F1807FA1
:1010D00001D3012010BD4FF0E02460610F216017A3
:1010E00002F043F90020A06107202061002010BD1C
:1010F0007047704710B590F83C20012A22D0012299
:1011000080F83C20CA688C6822F4407222434C6804
:1011100022F4806222430C6822F4006222430C69AC
:1011200022F4805222434C6922F400522243C969BE
:10113000002322F480420A4301684A6480F83C306C
:10114000002010BD022010BD70B590F83C20012A8F
:101150002CD0012480F83C40022280F83D20036816
:101160005A689D6822F070060A6832435A60104B34
:1011700002689A420ED00F4B9A420BD0B2F1804FC8
:1011800008D00D4B9A4205D00C4B9A4202D00C4B22
:101190009A4204D1496825F080031943916080F890
:1011A0003D40002180F83C10084670BD022070BD13
:1011B000002C0140003401400004004000080040C1
:1011C000000C004010B5040003D094F83D0010B1AD
:1011D00007E0012010BD002084F83C00204600F00C
:1011E0001FF8022084F83D00211D206801F0A0FCBA
:1011F000012084F8460084F83E0084F83F0084F81B
:10120000400084F8410084F8420084F8430084F8E8
:10121000440084F8450084F83D00002010BD000023
:1012200008B5114A01681148914208D1816941F419
:1012300000618161806900F40060009008BD0C4A83
:101240009142FBD1C16941F00401C161C069002232
:1012500000F00400009011461E20FFF787FCBDE857
:1012600008401E20FFF774BC002C01400010024013
:101270000008004090F83D10012901D0012070477E
:10128000022180F83D100168CA6842F00102CA607C
:1012900000680E4988420ED00D4988420BD0B0F14B
:1012A000804F08D00B49884205D00B49884202D0B4
:1012B0000A49884204D1816801F00701062903D058
:1012C000016841F00101016000207047002C0140DD
:1012D000003401400004004000080040000C0040C1
:1012E00070B5044690F83C00012817D0012584F819
:1012F0003C50022084F83D002068826822F077028A
:1013000022F47F4282600868502830D00DDC20280B
:101310004DD005DC98B310283BD148E0022070BDC9
:10132000302844D0402834D139E0602828D07028B3
:1013300006D0B0F5805F2CD0B0F5005F29D10AE06F
:10134000CB68D1E90121206801F045FC2068816863
:1013500041F0770109E0CB68D1E90121206801F073
:101360003AFC2068816841F48041816011E0CA68DC
:101370004968206801F004FD5021206807E016E06C
:10138000CA684968206801F00CFD6021206801F0FE
:101390002CFC84F83D50002084F83C0070BDCA68E5
:1013A0004968206801F0ECFC40212068EFE72268E2
:1013B00001461046EBE72DE9F0410D46040003D04D
:1013C00094F83D0018B108E00120BDE8F08100204C
:1013D00084F83C00204600F041F8022084F83D00EB
:1013E0002068816844F2070291438160211D2068D2
:1013F00001F09EFB226890689169166A2B68AF69BC
:10140000034340F20330814341EA0721A868EF69B2
:1014100008434FF6FC418843E96840EA072001434E
:1014200028692F6A000140EA0730084369686D693E
:1014300026F0220646EA051529439360226890614A
:1014400054F8460B0162012004F81F09E07520766C
:10145000E0762077A0750020B7E7000000B585B0E2
:1014600000210091019102910391026821492248D3
:10147000B2F1804F22D0214B9A421DD1CA6942F06D
:101480000202CA61CA6902F0020204928A6942F049
:1014900004028A61896901F004010491C02100916C
:1014A0006946FFF7E9F9002211461D20FFF75EFBB0
:1014B0005FF01D00FFF74CFB05B000BDCA6942F0AC
:1014C0000102CA61CA6902F0010204928A6942F00B
:1014D00004028A61896901F00401049103210091E9
:1014E0006946FFF7C9F9002211461C20FFF73EFBB1
:1014F0001C20DFE70010024000080140000400400B
:1015000070B590F83E60044690F83F5090F8423035
:1015100090F84320022021B104290ED0012E1BD1C6
:1015200014E0012E18D1012B16D184F83E0084F866
:10153000420001220021206820E0012D0CD1012A67
:101540000AD184F83F0084F8430014E0012D03D150
:10155000012B01D1012A01D0012070BD84F83E0089
:1015600084F83F0084F8420084F8430001220021FF
:10157000206801F023FB01220421206801F01EFBFA
:101580002068016841F001010160002070BD7047D2
:1015900070B50446006801694FF00005C94389072A
:1015A00015D4C168C943890711D4E91E016101201E
:1015B0002077206880698007204602D0FFF7E7FF88
:1015C00004E000F0CBF8204600F05AF925772068B7
:1015D0000169C943490717D4C168C943490713D4EE
:1015E0006FF004010161022020772068806910F407
:1015F000407F204602D0FFF7CAFF04E000F0AEF8BB
:10160000204600F03DF9257720680169C9430907A4
:1016100016D4C168C943090712D46FF008010161EB
:10162000042020772068C0698007204602D0FFF799
:10163000AEFF04E000F092F8204600F021F9257793
:1016400020680169C943C90617D4C168C943C906DE
:1016500013D46FF010010161082020772068C06961
:1016600010F4407F204602D0FFF791FF04E000F025
:1016700075F8204600F004F9257720680169C94310
:10168000C90708D1C168C943C90704D1891E0161CE
:10169000204600F051F920680169C943090609D4C0
:1016A000C168C943090605D46FF080010161204675
:1016B000FFF71EFD20680169C943490609D4C168C6
:1016C000C943490605D46FF040010161204600F08E
:1016D00034F920680169C94389060BD4C168C9433C
:1016E000890607D46FF0200101612046BDE87040F3
:1016F000FFF7FFBC70BD000000B585B00021009170
:101700000191029103910068104988421BD1104851
:10171000816941F0400181618069694600F04000C3
:1017200004904FF4C04000900220019003900948BB
:10173000FFF7A2F80848416821F0C00141F0E061DC
:1017400041F0C001416005B000BD0000002C014027
:10175000001002400018014000000140704770B5C1
:10176000044690F83C000D4601280AD0012084F878
:101770003C0042B1042A18D0082A2AD00C2A4DD1A4
:1017800039E0022070BD206801F038FA20688169D4
:1017900041F0080181612068816921F004018161C3
:1017A000206881692A69114311E0206801F056FA26
:1017B0002068816941F4006181612068816921F4B8
:1017C00080618161206881692A6941EA0221816121
:1017D00024E0206801F078FA2068C16941F008012E
:1017E000C1612068C16921F00401C1612068C1693B
:1017F0002A69114311E0206801F09AFA2068C16952
:1018000041F40061C1612068C16921F48061C16156
:101810002068C1692A6941EA0221C161002084F877
:101820003C0070BD10B5040003D094F83D0010B129
:1018300007E0012010BD002084F83C00204600F0A5
:101840001EF8022084F83D00211D206801F070F987
:10185000012084F8460084F83E0084F83F0084F8B4
:10186000400084F8410084F8420084F8430084F882
:10187000440084F8450084F83D00002010BD704706
:101880007047000010B50446022249B104290ED069
:10189000082913D094F84100012816D0012010BD6A
:1018A00094F83E000128F9D184F83E200FE094F826
:1018B0003F000128F2D184F83F2008E094F840006E
:1018C0000128EBD184F8402001E084F84120012276
:1018D000206801F073F913492068134A884201D047
:1018E000904203D1436C43F4004343642068884230
:1018F0000DD090420BD0B0F1804F08D00B498842F8
:1019000005D00B49884202D00A49884204D1816837
:1019100001F00701062903D0016841F001010160CF
:10192000002010BD002C01400034014000040040A4
:1019300000080040000C004070477047704710B529
:1019400004460068416994F83D20C1F3C011212A82
:101950000BD151B1416921F080014161606B08B147
:10196000FEF722FD204601F020FB2068416994F833
:101970003E20C1F38011222A0BD151B1416921F0DF
:1019800040014161A06B08B1FEF70EFD204601F059
:10199000F4FA002010BD7047F8B5026804461068DC
:1019A000D168536910F00F0F4FF0000553D003F0CA
:1019B000010601F4907737435FD0C20705D0CA050E
:1019C00003D5226C42F001022264420705D5DA07F2
:1019D00003D0226C42F002022264820705D5DA07A6
:1019E00003D0226C42F004022264020707D501F002
:1019F0002002324303D0226C42F008022264226C9F
:101A0000002A34D0800604D5880602D5204601F08D
:101A1000D5FA20684069216CC0F38010090700D412
:101A200030B3204601F0A9FA2068416949061BD568
:101A3000416921F040014161A06BA8B1584941635F
:101A4000A06BFEF7D5FC002811D0A06B416B01B054
:101A5000BDE8F040084783060FD58B060DD520461C
:101A6000BDE8F84001F0AABA2046FFF794FFF8BDA0
:101A70002046FFF790FF2564F8BD266B2023012E3A
:101A800052D1C60650D5CE064ED51068506800908B
:101A9000506940062AD5A16B086840680004000C14
:101AA000EAD0A68D8642E7D9E0858869202818D03B
:101AB000D06820F48070D0602068416921F0010175
:101AC00041612068416921F04001416184F83E3064
:101AD00025632068C16821F01001C160A06BFEF78A
:101AE00063FCA08DE18D401A81B219E0A08DE18DDB
:101AF000401A81B2E08D0028BED00029BCD0D06849
:101B000020F49070D0602068426922F001024261A6
:101B100084F83E3025632068C26822F01002C2605B
:101B20002046FFF70BFFF8BD05062BD50D0629D57E
:101B300094F83D002128F6D1A068B0F5805F01D16E
:101B40002069B0B1206A411C216221680078486098
:101B5000E08C401E0004000CE084E4D12068C168E1
:101B600021F08001C1602068C16841F04001C1607E
:101B7000F8BD206A0088C0F308005060206A801C0D
:101B80002062E5E74006F3D54806F1D5D168204646
:101B900021F04001D16084F83D3000F075FAF8BDC5
:101BA000752E000870B5040004D094F83D0000259F
:101BB00010B106E0012070BD84F83C50204600F0D2
:101BC00023F8242084F83D002068C16821F40051E6
:101BD000C160204601F04EFA2068016921F490416D
:101BE00001612068416921F02A0141612068C168D2
:101BF00041F40051C1602564202084F83D0084F840
:101C00003E00002070BD00002DE9F04F85B000259A
:101C100000950195029503950446DFF85C830368FF
:101C2000D64802210322DFF858C3202780264FF42C
:101C3000806A4FF4805B4FF01009434552D1C3696D
:101C400043F40023C361C36903F40023049383694D
:101C500043F0100383618069CDE900A100F010001A
:101C6000CDE903206946E0466046FEF705FE3001F7
:101C7000CDE900050120029069464046FEF7FCFDD3
:101C8000DFF80483BF494046C0E90015C0E90256A9
:101C9000C8F81050C8E90557C8F81CB0FEF764FD35
:101CA00008B1FEF77FFBB84FC4F838804437C8F856
:101CB0002440C7E902563D61B2487D61BD612830CC
:101CC000FD61C7E900093846FEF74EFD08B1FEF791
:101CD00069FB67630022032134207C62FEF746FF24
:101CE000342030E0DFF8A482434531D1C36943F4A6
:101CF0008013C361C36903F480130493836943F0C1
:101D000010038361836903F010030493836943F034
:101D1000200383618069CDE900B100F02000CDE9A6
:101D2000032069466046FEF7A7FD0420CDE90005C3
:101D3000694697480295FEF79FFD00220421352051
:101D4000FEF714FF3520FEF703FF05B0BDE8F08F66
:101D5000DFF84082DFF840C2434556D1836943F43F
:101D600080438361836903F480430493836943F070
:101D7000040383618069039200F0040004904FF42F
:101D80000070CDE900016946E0466046FEF774FD4B
:101D9000CDE900A5694640460295FEF76DFDDFF8E6
:101DA000E8817E4908F188084046C0E90015C0E98D
:101DB0000256C8F81050C8E905574FF44051C8F80A
:101DC0001C10FEF7D1FC08B1FEF7ECFA6E4FC4F818
:101DD0003880CC37C8F82440C7E902563D616F48C7
:101DE0007D61BD611438FD61C7E900093846FEF721
:101DF000BBFC08B1FEF7D6FA676300221146252026
:101E00007C62FEF7B3FE25209DE7DFF89481434511
:101E100055D1C36943F40033C361C36903F400338C
:101E20000493836943F0040383618069039200F0A3
:101E3000040004900420CDE900016946E0466046B4
:101E4000FEF71AFD0820CDE90005694640460295D7
:101E5000FEF712FDDFF84C81504940461431C0E9CD
:101E60000015C0E90256C8F81050C8E905574FF4EC
:101E70000051C8F81C10FEF777FC08B1FEF792FA83
:101E8000484FC4F838804437C8F82440C7E90256A0
:101E90003D6142487D61BD612830FD61C7E90009AF
:101EA0003846FEF761FC08B1FEF77CFA6763002252
:101EB000012126207C62FEF759FE262043E7DFF849
:101EC000E8C063457FF441AFC36943F48023C36135
:101ED000C36903F480230493836943F00803836197
:101EE0008069CDE900A100F00800CDE90320DFF80A
:101EF000BC8069464046FEF7BFFC4FF40060CDE968
:101F00000005694640460295FEF7B6FCDFF894806E
:101F1000224908F1880840462839C0E90015C0E97F
:101F20000256C8F81050C8E90557C8F81CB0FEF7AB
:101F30001BFC08B1FEF736FA1A4FC4F83880CC37CC
:101F4000C8F82440C7E902563D6114487D61BD616F
:101F50003C38FD61C7E900093846FEF705FC08B1C9
:101F6000FEF720FA67630022022127207C62FEF739
:101F7000FDFD2720E7E60000004C00400010024075
:101F80000010014030040240640300200050004073
:101F90000014014000380140000801405800024090
:101FA000004400407404002000480040000C014040
:101FB00090F83E30202B0ED159B152B190F83C3000
:101FC000012B08D0012380F83C300023036301F08B
:101FD000ADB8012070470220704790F83E30202BAA
:101FE0000ED159B152B190F83C30012B08D00123E9
:101FF00080F83C300023036301F0D0B80120704723
:10200000022070477047704770B5044690F83D0055
:10201000202830D169B362B394F83C0001282AD05B
:10202000012084F83C002162A284E284002525641A
:10203000212084F83D00636B10489862636B104860
:10204000D862636B0F481863606B1346456326685C
:10205000606B321DFEF7C6FB21686FF04000086020
:1020600084F83C502068416941F0800141610020C2
:1020700070BD012070BD022070BD0000432F00081C
:10208000712F0008852E000870477047FEE700009A
:1020900030B585B000200090019002900390134865
:1020A000816941F0040181618069114D00F00400F3
:1020B0004FF4C0540490002221462846FEF7E5FC68
:1020C0000120CDE900400320039069462846FEF731
:1020D000D3FB0122D1022846FEF7D7FC01221103CF
:1020E0002846FEF7D2FC05B030BD000000100240CB
:1020F000000801402DE9F04105461B48016821F424
:1021000070210160016841F440310160C614071F6D
:10211000002231463846FEF7B8FC00244FF48058C0
:10212000280601D5012200E0002241463846FEF78C
:10213000ACFC6806050E0220FEF78CFB012231463E
:102140003846FEF7A2FC0220FEF784FB002231464F
:102150003846FEF79AFC0220FEF77CFB641CE4B2D2
:10216000082CDDD3BDE8F0810408014070B51448A7
:10217000016821F470210160016841F4403101607F
:102180008414051F012221462846FEF77EFC012209
:10219000D60231462846FEF778FC0420FEF75AFBAB
:1021A000002221462846FEF770FC0420FEF752FB71
:1021B00031462846BDE870400022FEF766BC0000AC
:1021C0000408014070B51448016821F470210160D1
:1021D000016841F440310160C414051F002221460A
:1021E0002846FEF752FC6600002231462846FEF7DC
:1021F0004CFC0420FEF72EFB012221462846FEF768
:1022000044FC012231462846FEF73FFCBDE8704001
:102210000420FEF71FBB0000040801402DE9F04137
:1022200019480024016821F470210160016841F41B
:10223000002101608614051F012231462846FEF761
:1022400024FC0120FEF706FB0122D702394628466E
:10225000FEF71BFC0120FEF7FDFA08E0641CE4B267
:10226000FA2C04D9FFF7AEFF0120BDE8F08131461A
:102270002846FEF7FDFB0128F0D00022394628460B
:10228000FEF703FC0020F0E70408014070B5154696
:102290000E460446FFF76AFF2046FFF72BFFFFF7C5
:1022A000BDFF3046FFF726FFFFF7B8FF2846FFF7D0
:1022B00021FFFFF7B3FFFFF785FFBDE87040042063
:1022C000FEF7C8BA294808B5416941F001014161EA
:1022D000416901F001010091416941F00201416150
:1022E0004069002200F00200009011460C20FEF729
:1022F0003DFC0C20FEF72CFC002211460D20FEF7C1
:1023000035FC0D20FEF724FC002211460E20FEF7BE
:102310002DFC0E20FEF71CFC002211460F20FEF7BC
:1023200025FC0F20FEF714FC002211461020FEF7BA
:102330001DFC1020FEF70CFC002211461120FEF7B8
:1023400015FC1120FEF704FC002211463A20FEF78E
:102350000DFC3A20FEF7FCFB002211463B20FEF765
:1023600005FCBDE808403B20FEF7F2BB0010024030
:102370002DE9F04186B00025304800950195029581
:102380000395816941F010018161816901F01001BB
:102390000491816941F004018161816901F00401C6
:1023A0000491816941F040018161816901F040013E
:1023B0000491816941F008018161816901F008019E
:1023C0000491816941F02001816180691C4E00F017
:1023D00020004FF400740490002221463046FEF79E
:1023E00054FB184F0022FB213846FEF74EFBDFF866
:1023F0005880002238214046FEF747FB0094012414
:102400000220CDE90140694630460394FEF734FAD4
:10241000FB201126CDE90006CDE902546946384675
:10242000FEF72AFA3820CDE90006CDE902546946C4
:102430004046FEF721FA06B0BDE8F08100100240E8
:102440000010014000140140000C014010B596B08E
:1024500000240F9410941194129413941C21684634
:102460001494FDF7F5FE202107A8FDF7F1FE2F4893
:102470002D4901602321C0E9011440F2E731C0E990
:1024800003148021C0E90541FEF79CFE08B1FDF769
:1024900089FF4FF480500F900FA92448FEF720FFCA
:1024A00008B1FDF77FFF2148FFF7BCF908B1FDF740
:1024B00079FF139413A91D481494FEF745FE08B143
:1024C000FDF770FF602000904FF4FA70CDE9010431
:1024D0004FF48070CDE90440039408226946134804
:1024E0000694FFF73CF908B1FDF75CFF0C22694642
:1024F0000E48FFF734F908B1FDF754FF079408942C
:1025000009944FF400500A94CDE90B4007A90748FD
:102510000E94FEF7EFFD08B1FDF744FF0348FFF707
:10252000EBF816B010BD0000002C0140F0000020B8
:1025300010B58CB024216846FDF78AFE00241648A9
:1025400009944FF080410A9401600321C0E901140D
:102550004FF6FF72C0E90324846100910120CDE9A8
:1025600001400F21CDE90341CDE90540CDE9074107
:1025700069460948FEF71FFF08B1FDF713FF0994EC
:1025800009A905480A94FEF7DFFD002801D0FDF7F0
:1025900009FF0CB010BD00003801002010B58CB050
:1025A00024216846FDF754FE002416480994144976
:1025B0000A9401600321C0E901144FF6FF72C0E9DB
:1025C0000324846100910120CDE901400F21CDE970
:1025D0000341CDE90540CDE9074169460948FEF7C9
:1025E000EAFE08B1FDF7DEFE099409A905480A9440
:1025F000FEF7AAFD002801D0FDF7D4FE0CB010BDF7
:10260000000400408001002010B586B00024184866
:102610000094019402940394049414490594016075
:1026200042F2CF01C0E9011440F2CF71C0E90314B6
:102630008461FEF7C7FD08B1FDF7B4FE4FF480508A
:10264000009069460A48FEF74BFE08B1FDF7AAFE66
:10265000049404A906480594FEF776FD08B1FDF739
:10266000A1FE0348FEF706FE06B010BD00080040BC
:10267000C801002010B5114C0F480C2120604FF408
:10268000E13060600020A060E060C4E90401A06166
:10269000E0612046FFF786FA08B1FDF783FE206867
:1026A000C16841F01001C160BDE810401422044926
:1026B0000248FFF77DBC0000004C004010020020E3
:1026C0005200002010B5114C0F480C2120604FF42F
:1026D000E13060600020A060E060C4E90401A06116
:1026E000E0612046FFF75EFA08B1FDF75BFE206867
:1026F000C16841F01001C160BDE8104014220449D6
:102700000248FFF76ABC000000500040540200205D
:102710006600002010B5114C0F480C2120604FF4CA
:10272000E13060600020A060E060C4E90401A061C5
:10273000E0612046FFF736FA08B1FDF733FE206866
:10274000C16841F01001C160BDE810401422044985
:102750000248FFF72DBC000000380140980200201D
:102760001500002010B5114C0F480C2120604FF4CB
:10277000E13060600020A060E060C4E90401A06175
:10278000E0612046FFF70EFA08B1FDF70BFE206866
:10279000C16841F01001C160BDE810401422044935
:1027A0000248FFF705BC000000440040DC020020A6
:1027B0002900002010B5114C0F480C2120604FF467
:1027C000165060600020A060E060C4E90401A061D0
:1027D000E0612046FFF7E6F908B1FDF7E3FD206868
:1027E000C16841F01001C160BDE8104015220449E4
:1027F0000248FFF7DDBB0000004800402003002036
:102800003D000020FEE7FEE72DE9F0410446C179D6
:102810000079874F303800EB4002C2EBC01001EB6B
:10282000C001607964225043A27902EB820200EB7E
:1028300042000D18207AE17A303800EB4002C2EBFA
:10284000C01001EBC001607A64225043A27AA5F562
:10285000A05502EB820200EB42000844A0F5A05014
:10286000D0384000D03D01F01CF8724A724B01F0A4
:102870002BF800F05FFE06460020314601F0C2F959
:1028800048D0607C312845D116F0FF4F10D101228D
:1028900020213846FEF7F9F8012210213846FEF7CC
:1028A000F4F86420FDF7D6FF6449002000F0D2F868
:1028B0006349A6F50000884210D80022202138463E
:1028C000FEF7E3F8012210213846FEF7DEF8642017
:1028D000FDF7C0FF3146002000F0BCF859483044F5
:1028E000B0F5000F16D257493046C94301F00AFA35
:1028F0000646002210213846FEF7C7F801222021A3
:102900003846FEF7C2F86420FDF7A4FF31460020E8
:1029100000F0A0F84C4EADB1607C312845D140F6B6
:102920003C7040F2E241854201D3054602E08D420F
:1029300000D80D460520B5FBF0F04449C0F57A708B
:102940000968C863607C31282FD1207B312860D092
:10295000012208213046FEF798F8607B31285AD0D2
:10296000012280213846FEF790F8A07B312854D010
:10297000012240213846FEF788F8E07B31284ED00E
:10298000012208213846FEF780F8207C312848D003
:10299000012201213846FEF778F8607C312842D0C8
:1029A000012202213846FEF770F8607C30283CD1C5
:1029B0000C2030212154401CC0B21428FAD301222B
:1029C00008213046FEF761F8012280213846FEF7E3
:1029D0005CF8012240213846FEF757F801222021F9
:1029E0003846FEF752F8012210213846FEF74DF81E
:1029F000012208213846FEF748F801220221384614
:102A0000FEF743F83846BDE8F04101221146FEF7D3
:102A10003CB800229DE70022A3E70022A9E700229C
:102A2000AFE70022B5E70022BBE7BDE8F081000078
:102A300000140140FCA9F1D24D62503F6F12833A5D
:102A400000002040FFFF5FBF000C0140F0000020AD
:102A50007047704710B50A4604460C21104601F035
:102A6000F8F901F02FF80A4A0A4B00F095FD00F042
:102A7000EBFEC0F30321C2B234B1012C06D1C22057
:102A8000BDE81040FFF702BCC020F9E710BD000010
:102A900014AE47E17A141440FEF702B830B58FB097
:102AA00028216846FDF7D4FB14210AA8FDF7D0FBC6
:102AB00001210804CDE900100024029402250491AC
:102AC000CDE907504FF4E01009906846FEF76CF925
:102AD00008B172B6FEE70F20CDE90A054FF4806019
:102AE000CDE90C4002210AA80E94FEF771F80028E7
:102AF00001D072B6FEE70FB030BD70470148FEF757
:102B000047BD0000380100200148FEF741BD00002C
:102B10008001002010B50448FEF73AFD0348017813
:102B200081F00101017010BDC8010020DE0000200D
:102B3000F0B502681C4B1D4D1D4E1E4F1E4C4FF034
:102B4000804C984209D0A04207D0604505D0A842E9
:102B500003D0B04201D0B84204D122F0700E4A68CE
:102B600042EA0E02984209D0A04207D0604505D043
:102B7000A84203D0B04201D0B84203D122F440753C
:102B8000CA682A434D6922F080022A4302608A689B
:102B9000C2620A688262984201D0A04201D10969EA
:102BA000016301214161F0BD002C0140000400409F
:102BB00000080040000C00400034014010B501F056
:102BC0001F030121046A99408C430462016A9A4000
:102BD0001143016210BD10B5846842EA032224F457
:102BE0007F440A432243826010BD826822F0700253
:102BF0000A4342F00701816070470000F0B5026AA5
:102C000022F001020262036A42688469124E24F0D3
:102C100073050C682C4323F002058B682B430D4D84
:102C2000A84201D0B04205D123F00807CB683B434E
:102C300023F00403A84201D0B04205D14D6922F42B
:102C4000407215438A692A4342608461496841633E
:102C50000362F0BD002C014000340140F0B5026A6F
:102C600022F010020262026A436884690D6824F44B
:102C7000E64444EA05248D6822F0200242EA051267
:102C80000F4D104EA84201D0B04206D1CF6822F0BD
:102C9000800242EA071222F04002A84201D0B0426C
:102CA00007D14D6923F4406343EA85038D6943EA04
:102CB000850343608461496881630262F0BD00005E
:102CC000002C014000340140F0B5026A22F4807209
:102CD0000262026A4368C46922F4007224F0730538
:102CE0000C68124E2C438D6842EA05220E4DA84214
:102CF00001D0B04206D1CF6822F4006242EA072236
:102D000022F48062A84201D0B04207D14D6923F479
:102D1000405343EA05138D6943EA05134360C461D8
:102D20004968C1630262F0BD002C014000340140DB
:102D300030B5026A22F480520262046A4268C369B2
:102D40000D6823F4E64343EA05238D6824F4005418
:102D500044EA0534084DA84202D0084DA84204D1E7
:102D60004D6922F4804242EA85124260C36149689B
:102D70000164046230BD0000002C014000340140B9
:102D800010B5036A046A24F001040462846924F023
:102D9000F00444EA021423F00A020A438461026246
:102DA00010BD10B5036A23F0100303628369046A3F
:102DB00023F4704343EA023224F0A00343EA0111F2
:102DC0008261016210BD000038B5144800680168D6
:102DD000C943C9061DD40168406800900F48FEF73A
:102DE000AEFD0F48006840680E4AC0F11400C1B241
:102DF00000200D4B03E0145C1C54401CC0B2884200
:102E0000F9D30848FDF702FA142206490348FFF7F0
:102E1000CFF8BDE838400148FEF7BEBD10020020E3
:102E200064030020520000207A0000200E4808B5FC
:102E300000680168C943C90610D401684068009061
:102E400014220A490848FFF7C8F8084A0849002030
:102E5000135C0B54401CC0B21428F9D3BDE80840E1
:102E60000148FEF799BD00005402002066000020D2
:102E70008E00002010B5406A0021C185C184FEF794
:102E80008AFD10BD70B5446A2068406994F83D1011
:102E9000C0F3C0100025212904D118B1E5842046D3
:102EA00000F083F82068406994F83E10C0F3801069
:102EB000222904D118B1E585204600F05EF8206C87
:102EC00040F0100020642046FEF765FD70BD10B58F
:102ED0000146406A0968096889061BD40021C1853A
:102EE0000168CA6822F48072CA6001684A6922F0E7
:102EF00001024A6101684A6922F040024A612021C8
:102F000080F83E10016B012904D10168CA6822F0E3
:102F10001002CA60016B012902D0FFF773F810BDDF
:102F2000818DFEF70BFD10BD10B5406A016B0129C4
:102F300002D0FFF768F810BD818D4908FEF7FEFC4E
:102F400010BD10B50146406A0968096889060CD4AD
:102F50000021C18401684A6922F080024A61006848
:102F6000C16841F04001C16010BDFFF78DF810BD90
:102F700010B5406AFFF789F810BD0168CA6822F4ED
:102F80009072CA6001684A6922F001024A61016BCD
:102F9000012904D10168CA6822F01002CA60202108
:102FA00080F83E100021016370470168CA6822F072
:102FB000C002CA60202180F83D10704708B590F823
:102FC0003E10222901D0022008BD82684FF48053B0
:102FD0009A4201D1016921B1816A9A421BD04AB15A
:102FE0000AE00268816A5268C2F308020A80816AB4
:102FF000891C08E0026972B10268526802F07F021F
:103000000A70816A491C8162C18D491E0904090C3C
:10301000C18503D019E002685268F1E70168CA6807
:1030200022F02002CA600168CA6822F48072CA6075
:1030300001684A6922F001024A61202180F83E10AD
:10304000016B012903D0FEF7DDFF002008BD002140
:1030500001630168CA6822F01002CA6001680A6848
:10306000D20602D50A6849680091818DFEF766FC98
:10307000EBE7000070B5044600680169E26821F4DE
:103080004051114301612169A06808436169084307
:103090002168CA6841F20C639A430243CA602068FF
:1030A0004169A26921F44071114341611E492068C0
:1030B000884202D1FDF732FE01E0FDF71FFE00EB72
:1030C000C00101EB0012606864218000B2FBF0F3E4
:1030D000B3FBF1F36FF018067343B2FBF0F5B2FBEC
:1030E000F0F605EB8305322303EB0515B5FBF1F58F
:1030F000B6FBF1F605F0F00505EB0615B2FBF0F6B0
:10310000B2FBF0F0B0FBF1F06FF01802504306EBA9
:10311000800003EB0010B0FBF1F0216800F00F001D
:103120002844886070BD00000038014038B58162D5
:1031300082850025134604460564222084F83E005B
:10314000A26B13489062A26B1248D062A26B124825
:103150001063A06B0A4645632168A06B091DFDF74B
:1031600041FB206801684168009184F83C50C168C7
:1031700041F48071C1602068416941F00101416101
:103180002068416941F040014161002038BD0000E4
:10319000CF2E0008292F0008852E00088162828525
:1031A000C28500210164222280F83E2080F83C1074
:1031B0000168CA6842F48072CA6001684A6942F0D4
:1031C00001024A610068C16841F02001C16000202D
:1031D0007047000038B51D4800680168C943C9063A
:1031E0002ED40168406800901848FEF7A8FB1848E4
:1031F00000684068174AC0F11400C1B21078532823
:1032000016D15078482813D190784C2810D1D07816
:1032100047280DD1907C4C280AD1D07C472807D173
:103220000D4B0020145C1C54401CC0B21428F9D370
:103230000848FCF7EBFF142206490448FEF7B8FEE5
:10324000BDE838400148FEF7A7BB00009802002007
:10325000EC03002015000020B600002038B52448FB
:1032600000680168C943C9063AD40168002440686F
:1032700000901F48FEF763FB1E48006840681E4A26
:10328000C0F11400C1B213781C48452B1BD19378B0
:10329000532B18D1D378542B15D1937A0373D37A47
:1032A00043739379837353794374537B0371937B93
:1032B000437130238371C371157C0572557C45724F
:1032C000927C8272C372427C0D48312A0DD0047008
:1032D0000948FCF79BFF142207490548FEF768FEE2
:1032E000BDE838400248FEF757BB01220270EFE705
:1032F000DC0200207404002029000020CA00002005
:103300000000002038B5144800680168C943C906A8
:103310001DD40168406800900F48FEF710FB0F486D
:10332000006840680E4AC0F11400C1B200200D4B85
:1033300003E0145C1C54401CC0B28842F9D3084816
:10334000FCF764FF142206490348FEF731FEBDE88E
:1033500038400148FEF720BB20030020FC04002079
:103360003D000020A2000020FEE70907090E00280A
:1033700004DB00F1E02080F80014704700F00F003B
:1033800000F1E02080F8141D704700005C4C4420E0
:103390005421207041206070A170E0700D20A07455
:1033A0000A20E074FDF784FBFFF778FB0026FEF7A8
:1033B000DFFFFEF787FFFFF7ADF9FFF7D3F9FFF760
:1033C000F9F9FFF757F9FFF77DF9FFF73FF8FFF736
:1033D000AFF8FFF7E3F8FFF717F9FEF759FE012200
:1033E00008214848FDF751FB474D0122802128461E
:1033F000FDF74BFB012240212846FDF746FB012249
:1034000020212846FDF741FB012210212846FDF727
:103410003CFB012208212846FDF737FB012202214F
:103420002846FDF732FB012211462846FDF72DFB09
:103430003C213648FEF764F8002269153448FDF750
:1034400024FB4FF4FA752846FDF704FA08213148A9
:10345000FEF718FA0C212F48FEF714FA0A20FDF7A0
:10346000F9F92846FDF7F6F9DFF8AC80DFF89CB0F3
:103470002A4F2B4DDFF8AC90A4F1010A98F8000018
:1034800010B1012804D00CE0DBF80000466A08E027
:10349000DBF80000406A811B0020A073E0732074F9
:1034A000617478782071B8786071687AA071A87AB0
:1034B000E071E87A2072287B607299F80910A17295
:1034C00099F80A10E17299F80B10217399F80C0021
:1034D000607314220A491448FEF796FD9AF800001A
:1034E00001280BD0114800BFFFF78EF920210548B5
:1034F000FDF7C3FAC820FDF7ADF9BFE70C48F3E7C5
:1035000001000020000C014000140140380100209F
:1035100000100140F0000020DE000020A20000208A
:103520007A0000208E00002098020020B6000020C3
:10353000CA00002021F00042A2F16052B2F5801FC3
:1035400001F0004328BFD2F17F6C0BD95FEA001C69
:1035500043EAC20242EB507018BF704728BF20F008
:1035600001007047B2F5801FBCBF184670474FEA94
:10357000410C1CF5001F02D2084600F0BDBB70B51F
:1035800000F04CFA00000089FFF7F6BF4FF0004052
:10359000A0F58000704700002DE9C04130B4DFF88D
:1035A000A0C23CEA111418BF3CEA131400F0EC80EE
:1035B00081EA03051CEA111444EAD57418BF1CEA19
:1035C000131500F0C780A4EB05044FF0004545EA51
:1035D000C12145EAC32341EA505143EA525304F161
:1035E0007F74994204F500344FEAC0204FEAC222AA
:1035F00008BF904200F09C804FEA13650FF240161E
:10360000765D4FEA134506FB05F7C7F1807706FBA9
:1036100007F74FEAD737A7FB03687642C8F580382B
:10362000A7FB06CE38BFA8F1010807FB08E64FF05C
:10363000000EA6FB028CE6FB03CEDCF1000CCEF103
:10364000004E38BFAEF1010EA6FB0C584FF000073C
:103650004FF00005E6FB0E87A1FB08C6A0FB07CED6
:1036600016EB0E0645F10005E1FB076515F1E04E8E
:103670007EBFA4F580345FEA46066D4116F18007EF
:1036800045F100054FEA17274FEA066647EA056746
:10369000A6F1DE46B6F1805F4FEA15251FD9384600
:1036A00024F0010C05EBC471BCF1FE6F01EB0C11B1
:1036B00002D8F0BCBDE8008124425CBF01F5801E49
:1036C0009EEAC47F02D4F0BCBDE80081244238D415
:1036D000F0BCA1F1C041BDE8004100F0EDB94FEAF6
:1036E000D22242EA43524FEAD323A7FB02864FEA93
:1036F000D02040EA415007FB03661EEA0E0F4FEA56
:10370000D12105FB026658BFA6EB0056B6EB00566A
:103710004FEA520E4EEAC37E18EB0E0E56EB530ED6
:10372000BDD518EB02085E417F1C55F10005B6E7D8
:103730004FF480154FF000074FF000064FF00008DF
:10374000ADE7F0BC4FF0000001F1C04101F00041D5
:10375000BDE8008111EA0C1F0CEA131500D00CE043
:1037600013EA0C1F00F025804FF00000F0BC81EA46
:10377000030101F00041BDE80081F0BCBDE800415B
:1037800081EA030100F098B9F0BCBDE8004170B5D2
:1037900000F044F9097EFC3E00F007B881EA03011D
:1037A0004FF0000001F00041704781EA030100F092
:1037B00083B9F0BCBDE800414FF0000021497047DB
:1037C000FFFDFBF9F7F5F4F2F0EEEDEBE9E8E6E4E6
:1037D000E3E1E0DEDDDBDAD8D7D5D4D3D1D0CFCD6D
:1037E000CCCBCAC8C7C6C5C4C2C1C0BFBEBDBCBBA6
:1037F000BAB9B8B7B6B5B4B3B2B1B0AFAEADACABA1
:10380000AAA9A8A8A7A6A5A4A3A3A2A1A09F9F9E7A
:103810009D9C9C9B9A99999897979695959493932C
:10382000929191908F8F8E8E8D8C8C8B8B8A8989C3
:103830008888878786858584848383828281818046
:103840000000FF070000F87F4FEA1153A3F58063E3
:10385000D3F11E03A8BFD3F1200C08DB4FF00042C8
:1038600042EAC12252EA505232FA03F0704709424A
:103870000BD4102BC4BF0020704703F5787CBCF13B
:10388000FF3F05D04FF0FF3070474FF0000070470A
:1038900070B500F0C3F800BF499224800020704743
:1038A000F0E7B0FA80F310FA03F10AD0C3F11D0378
:1038B00003F580634FEA41504FEA035202EBD121F6
:1038C00070474FF000007047DFF848C170B51CEA40
:1038D000111E1EBF1CEA13159EEA0C0F95EA0C0F71
:1038E00000F06F8081EA030423EA4C134EEAD47E91
:1038F00021EA4C1141F4801143F48013AE44A1FB42
:10390000024CA0FB0365AEF17F7E361955EB0C052A
:10391000A1FB034C4CF10003A0FB021C16EB0C06B0
:10392000654153F10003094218BF46F0010613F444
:10393000007F0BD14FEA03314FEA0530340341EAEF
:10394000155140EA16506FF003020AE04FEAC32116
:103950004FEAC520F40241EA555140EA56506FF053
:10396000020202EB2E4201EB025585EACE710AD02B
:103970005FEA440C18BF24F0004450F1000041F10C
:10398000000120EAD47040F2FE7C624500D270BD96
:10399000A84214BF4FF080444FF04044002E08BFAF
:1039A0000024BEF1806FA8BFA1F1C041BDE8704006
:1039B00080F282804FF0000001F1C04101F000412F
:1039C00070479EEA0C0F0CEA131518BF95EA0C0F0E
:1039D00006D04FF0000081EA030E0EF0004170BDEA
:1039E00000F01CF88900013E00F007B800F009B8AB
:1039F0004FEA430C5FEA5C5C08D081EA030100F007
:103A00005BB84FEA410C5FEA5C5CF6D14FF0000016
:103A1000014970470000FF070000F87F0EF1020E19
:103A20002EF0030E5EF8046B364205D4012A43EBF8
:103A3000030515F5001F12D8012841EB010C1CF5F8
:103A4000001F0CD80ED14FEAD17C15F5001F0CEBEE
:103A50004C0C0CF1020C08BF4CEBD37C04E04FF093
:103A6000080C01E04FEAD37C0CEB4C0526FA05F676
:103A700006F00706B6F1040C06D20EEB860CBDE884
:103A800070404CF0010C6047DFE80CF0090B0202BB
:103A90004FF000414FF00000A1F5002170BD194624
:103AA0001046012851EB010418BFD4F5001484BF5F
:103AB000002001F0004170BD0808A0F500114FEA98
:103AC0003101704743004FEAD30C4FEA3C0C4340AE
:103AD0001FBF40070CF1605113F0FE4F70471CF000
:103AE000006F03D100200CF0004170470CF0004340
:103AF00043EA507010B540EACC0000F0B7F800BFC0
:103B0000000000924FEA0001FFF7D6BF4FF00041DE
:103B10004FF00000A1F500217047000090EA010F6E
:103B200048BF81F0004100F1F480421A3CBF801A86
:103B300089184FEAD0524FF07F4C1CEA410FA2EB9C
:103B4000D15318BF9CEA026F00F03B804FF0004C4D
:103B50004CEA00204CEA012121FA03FC10EB0C0C8A
:103B60001ED202F1FF325FEA1C2040EBC25038BF88
:103B700070471CF07F0F4FEA400C18BFBCF17F4F1D
:103B800038BF7047C3F12003994008BF20F00100FF
:103B9000BCF17F4F38BF7047A0F1C04000F0ACB817
:103BA0004FEA3C00000A40EBC25028BF1CF0FF0F58
:103BB0004FEA400CE6D018BFBCF17F4F38BF7047CA
:103BC000EAE79CEA026F05D010EA5C0F08BF00F03C
:103BD0000040704710B500F049F800BF64FBBE3EDE
:103BE000014800F004B900BF0000C07F401058BF7A
:103BF000C0F14040491058BFC1F140418142EFF34C
:103C00000080704750EA010C00F113801CF5000F92
:103C100058BFBCF5000F01D48842704707D710F594
:103C2000000F58BF11F5000F15D488427047894224
:103C300070471CF5000F04D5BCF5000FF7D5814285
:103C400070474FF0807C1CEB400F38BF1CEB410FDE
:103C500001D28142704710B500F008F89224490063
:103C60004FF000504FF08051FFF7C0BF0EF1020E31
:103C70002EF0030E5EF8044B244204D44FEA4102B6
:103C8000B2F17F4F11D84FEA4003B3F17F4F0CD808
:103C90000ED14FEAD07CB2F17F4F0CEB4C0C0CF103
:103CA000020C08BF4CEBD17C04E04FF0080C01E0A3
:103CB0004FEAD17C0CEB4C0324FA03F404F0070424
:103CC000B4F1040C06D20EEB840CBDE810404CF0AD
:103CD000010C6047DFE80CF0070802024FF00040DB
:103CE000A0F5800010BD0846420018BFD2F18072D6
:103CF00088BF00F0004010BDFF2141EAD050C00550
:103D00007047000090EA010F48BF81F000413FF585
:103D10000CAF421A04D882F00042A0EB020011441A
:103D20004FEAD0524FF07F4C1CEA410FA2EBD15327
:103D300018BF9CEA026F4AD04FF0004C4CEA0020BA
:103D40004CEA012121FA03FCB0EB0C0C0FD412F069
:103D5000FE0F36D05FEA4C001DD5001240EBC2507A
:103D600038BF70471CF03F0F18BF70470BE0A2F13F
:103D700001025FEA1C2040EBC25038BF70471CF0C4
:103D80007F0F18BF7047C3F12003994014BF401E36
:103D900020F00100704780084FEA122308BF7047E7
:103DA000B0FA80FCA2EB0C02CCF1280C60FA0CF00B
:103DB00093EA122F04BF00EBC25070474FEAC37062
:103DC0007047130A5FEADC1008BF7047F6E79CEA09
:103DD000026F04D010EA5C0F08BF0020704710B5D6
:103DE000FFF744FF40DFF63E81F0004070470CF0E3
:103DF0000F03092B08BF082000F051800A2B0BD0BD
:103E0000082B18BF704708BF1CF0400F0AD04FF0B6
:103E100000004FF0000170471CF0400F18BF4FF03A
:103E2000004070471CF0100F08D020F0704300F0E5
:103E30007F4242EAD3014FEA4370704700F060408E
:103E400021F07F4242EA000201F07F4040EA7270B6
:103E500070474FF0FF0212EAD0521CBF92F0FF03EE
:103E60008B42C2BFD14200EBC1507047002A0AD03A
:103E7000002B0BD0002900F00040A4BF40F0FE4012
:103E800040F40000704700F00040704743024FF0DC
:103E90000B0C18BF4CF0806C7FF4A2AE70471CF482
:103EA000801F11D01CF4E02F03D06FEACC31490001
:103EB00070474FF04050EFF3008222F0704242EA28
:103EC000000282F3008870474FF000007047000046
:103ED00000000000000001020304060708090000BA
:103EE0000000010203040000083F00080000002059
:103EF000F00000006C010008F83F0008F00000200E
:103F0000F80A0000880100080030000000000000EE
:103F10000000000000000000000000000030000071
:103F20000000000000000000000000000000000091
:103F30000030000000000000000000000000000051
:103F40000000000000300000000000000000000041
:103F50000000000000000000000030000000000031
:103F60000000000000000000000000000000300021
:103F70000000000000000000000000000000000041
:103F80000000300000000000000000000000000001
:103F900000000000000030000000000000000000F1
:103FA00000000000000000000000300000000000E1
:103FB00000000000000000000000000000003000D1
:103FC00000000000000000000000000000000000F1
:103FD00000003000000000000000000000000000B1
:103FE00000000000000000000100000010000000C0
:083FF000000000000024F400B1
:0400000508000131BD
:00000001FF
